:020000040800F2
:10000000781C002001010008A71A000895180008B4
:10001000A51A000849010008712D00080000000021
:10002000000000000000000000000000211B00088C
:100030004B01000800000000D11A0008531B000803
:100040001B0100081B0100081B0100081B01000820
:100050001B0100081B0100081B0100081B01000810
:100060001B0100081B0100081B0100081B01000800
:100070001B0100081B0100081B0100081B010008F0
:100080001B0100081B0100081B0100081B010008E0
:10009000092D00081B0100081B0100081B010008B6
:1000A0001B0100081B0100081B0100081B010008C0
:1000B0001B0100081B010008151C00081B0100089B
:1000C0001B0100081B0100081B0100081B010008A0
:1000D0001B0100081B0100081B0100081B01000890
:1000E0001B0100081B0100081B010008DFF80CD0F1
:1000F00000F018F800480047752D0008781C002013
:100100000648804706480047FEE7FEE7FEE7FEE7B1
:10011000FEE7FEE7FEE7FEE7FEE7FEE7C91B000895
:10012000ED000008064C074D06E0E06840F00103D2
:1001300094E8070098471034AC42F6D3FFF7DAFF93
:100140002438000844380008FEE770472DE9FC4FCA
:10015000594A04234FF0000B4FF001084FF00F0EE7
:100160004FF000090025904208BF03230093102D93
:1001700008BFBDE8FC8F0A6808FA05F73A4200F0AC
:1001800097804A68032A16D9112A24D0122A26D029
:100190004C4B9A4213D04C4B9A4210D04B4B9A4244
:1001A0000DD04B4B9A420AD04A4B9A4207D04A4B49
:1001B0009A4204D020E0DFE802F00216191D8A6896
:1001C00032B1012A4FF0080914BF4761076113E0FB
:1001D0004FF0040910E0CA6802F104090CE0CA6893
:1001E00002F10C0908E0D1F80C9005E0CA6802F1B0
:1001F000080901E04FF00009082D5A46044628BFBF
:10020000203A28BF043426680EFA02F309FA02F2F3
:1002100026EA03031A432260CA79D20648D5DE4A89
:100220000BF00C0C1346126842F001021A601A68B7
:100230000EFA0CF302F001020192204A019CAC0874
:10024000A2F57E7656F8242022EA030A234A904239
:1002500008D0234A904207D0224A009B904208BF10
:10026000022302E0002300E0012303FA0CF242EA39
:100270000A0246F82420114E4A68336812F4803F7F
:100280000CBFBB433B4333609303736854BFBB4312
:100290003B437360D302B36854BFBB433B439202FA
:1002A000074AB3601346126854BFBA433A431A6010
:1002B0000BF1040B01355AE7001401400004014022
:1002C0000C04014000001110000012100000211069
:1002D0000000221000003110000032100008014020
:1002E000000C014000100140002A08BF0904016110
:1002F000704700005F488068704700BFB0B5044693
:1003000018B394F83D0028B9002084F83C0020463A
:1003100000F088F8242084F83D002068016821F06E
:100320000101016000F0DCFE3A493B4A00233B4DED
:1003300088424FF0000138BF0121904238BF0123AD
:100340006268AA4238BF0B460BB10120B0BD7049AC
:10035000334DB0FBF1F32168AA424B600CD8520038
:1003600001380133B0FBF2F00B6201306FF31F3044
:10037000042898BF042033E04FF49675A0F1010CD7
:100380006B434FF47A75B3FBF5F301330B62A3684B
:1003900043B1192004255043BCFBF0F0013065F354
:1003A0001F3006E002EB4200BCFBF0F001306FF3BF
:1003B0001F30000509D053B1192050430422BCFB63
:1003C000F0F0013062F31F3008E0012008E002EB9A
:1003D0004200BCFBF0F001306FF31F3040F40040EE
:1003E000C861D4E9070210430860D4E9030210434E
:1003F0008860D4E905021043C860086840F0010035
:10040000086000202021206484F83D10206384F8D7
:100410003E00B0BD80841E0000093D00A1860100A1
:10042000A086010001680F48814218BF7047FEB5E1
:10043000122100F538400391C0210291032105915A
:1004400002A9FFF783FE2F48016841F40011016003
:10045000006800F400100190019806B0BDE88040EB
:10046000704700BF00540040024801788268114480
:10047000816070470000002080B50748016841F0A6
:1004800010010160032000F0BBF8002000F006F826
:1004900000F040F8002080BD00200240B0B586B0DA
:1004A00001461E200022002400F088F81E2000F0E3
:1004B00079F81448016841F0040101606946006858
:1004C00000F004000190019801A800F0E7FD00F0A1
:1004D00007FE0F4D40000C490C4A40F2E733B0FBD9
:1004E000F5F00138C1E900200846C1E902430C617A
:1004F00001F068F808B1012002E0034801F07DF83E
:1005000006B0B0BD1C100240240B002000080040C3
:1005100040420F001CB52048016841F00101016014
:10052000016801F0010101910199416841F0805198
:100530004160406800F0805000900098032000F077
:100540005FF8164C6FF00B0000210022A0476FF0FF
:100550000A0000210022A0476FF0090000210022BC
:10056000A0476FF0040000210022A0476FF00300B5
:1005700000210022A0476FF001000F210022A047B8
:100580004FF0FF300F210022A047054802220168EA
:1005900062F31A6101601CBD18100240BD0500081D
:1005A0000400014000F01F010122400902FA01F19C
:1005B000014A42F82010704700E100E010B5164BE8
:1005C0001B68C3F3022E0EF1040CAEF103048EF08F
:1005D0000703BCF1070F4FF0010C38BF0024042BB8
:1005E00028BF04230CFA03F3013B19400CFA04F36F
:1005F000013BA1401A401143BDE8104001F054BA3C
:1006000005494FF6FF030A681A4060F30A220348BF
:1006100010430860704700BF0CED00E00000FA05D1
:1006200080B501F07F0E00EB411C11F0800F00EB54
:100630004E1000F1280008BF0CF50A702AB1012104
:10064000C3808172190C018102E0002183808172D4
:10065000002080BD704700EB4112D0F85C04D26BE3
:1006600001F020BD00EB4112D0F85C04D2F83C222E
:1006700001F069BD10B5044601F07F000A4604EBA5
:10068000401312F0800F4FEAD21203F1280108BF85
:1006900003F50A714A70087094F82804012801D102
:1006A000022008E0012084F82804206802F07BF989
:1006B000002084F82804C0B210BDB0B5044601F093
:1006C0007F030A4600EB4110002504EB431112F0B2
:1006D000800F01F1280108BF00F50A71D0090B70E5
:1006E0008D70487094F82804012801D1022507E094
:1006F000012084F82804206802F0EFF984F82854D7
:10070000E8B2B0BD70B5064601F07F000C4606EBBE
:10071000401514F0800F05F1280108BF05F50A7196
:10072000E5094D7008700A61CB7096F8280401281D
:1007300001D1022008E0012086F82804306802F088
:1007400021F8002086F82804C0B270BD80B501F001
:100750007F0C4FF0000E00EB4C1101F50F77A7E86E
:100760000C4081F829E281F828C201F50A7100687D
:1007700002F00AFA002080BDB0B5044601F07F0502
:100780000A4600EB411004EB451112F0800F4FEACE
:10079000D21201F1280108BF00F50A7101200D7085
:1007A00088704A7094F82824012A01D102200DE0B3
:1007B00084F82804206802F0C5F925B9206804F2FD
:1007C0002C4102F088F9002084F82804C0B2B0BDA2
:1007D00080B501F07F0C00EB4C1101F828CF4FF0F1
:1007E000000C01F1140E8EE80C1001224A70006812
:1007F00002F0CAF9002080BD2DE9FE4F04460068D2
:1008000002F088FA10F4004F01D12068BCE100200A
:1008100048F60F79ADF80A00ADF8080004F22C4054
:100820000190A8E1BDF80A1011F00F0B34D04FEA87
:100830004B011FFA81F830F81810ADF80810BDF917
:100840000810B1F1FF3F00F30E8130F8181040F6A8
:100850008F7204EB4B1A0AF50A75114020F8181034
:100860009AF83212002900F0B380297830F821205C
:10087000B0F8503003EBC10112F4804F00EB41019E
:1008800040F0BC80D1F80C646FF39F26002E00F07E
:10089000C280BAF83022B8E0BDF80A20018812F010
:1008A000100F2BD101EA09010180B0F8501094F823
:1008B000282001EBC20100EB4100D0F804046FF3E3
:1008C0009F206064E16B08440021E0632046FFF74D
:1008D000C2FE94F82400002800F04D81206C00280E
:1008E00040F04981206894F8241041F08001C9B299
:1008F000A0F84C10002084F824003CE1ADF808106A
:10090000BDF8081011F4006F45D1BDF90810B1F120
:10091000FF3F00F33081018840F68F721140018063
:10092000B0F8501094F8282201EBC20100EB41010D
:10093000D1F80C346FF39F23002BC4F844320DD050
:10094000B4F82C22D4F83C129BB202F0E6F9D4F8A9
:100950003C02D4F844120844C4F83C02204600216A
:10096000FFF780FE2068B0F85010D4F8383200F25B
:100970000C423F2BC0F0ED805F0140F2FF3613F0D8
:100980001F0F27EA060708BF07F5F84707F4F843E3
:1009900043F40043E3E0B0F8501094F8282201EB50
:1009A000C20100EB4101D1F80C3401996FF39F2390
:1009B000C4F84432B4F82C2202F0AFF9206840F6B3
:1009C0008F72018811400180204600F019FAD2E0B0
:1009D000B0F850102A7801EBC20100EB4101D1F8C8
:1009E0000C646FF39F26002E00F0B180BAF82C2221
:1009F000DAF83C12B3B202F090F919E0D1F80464CD
:100A00006FF39F263EB1BAF82E22DAF83C12B3B249
:100A100002F083F900E000262878216840F60F7381
:100A200031F820201A4048F2C0031A4321F8202050
:100A3000DAE98F13DAF84422B0B20244002BCAF884
:100A4000442201EB0002CAF83C2203D0DAF8381243
:100A5000814204D929782046FFF704FE03E0297873
:100A60002046FFF773FEBDF8080010F0800F00F07D
:100A70008280206804EB4B1505F1280630F8181029
:100A800001EA090120F8181095F83210A9B131785F
:100A900030F82120B0F8503003EBC10112F0400FC4
:100AA00000EB410120D1D1F80C342F466FF39F2386
:100AB00047F8443F2BB32A8E1FE0B0F8502031781E
:100AC0002F4602EBC10200EB4202D2F804346FF36E
:100AD0009F2347F8443F13B3AA8DE96B9BB202F002
:100AE00035F9206831781AE0D1F804342F466FF3D5
:100AF0009F2347F8443F23B1EA8DE96B9BB202F094
:100B000025F93178206840F60F7330F821201A401B
:100B100048F2C00303F57F531A4320F82120B0F8B0
:100B2000502002EBC10200EB4200D0F804046FF346
:100B30009F203860D5E90F2302442046002BEA634A
:100B400002D0FFF745FE16E0FFF785FD13E0002613
:100B50006EE703F0010707EB53039B029BB242F8D9
:100B6000113043F60F720188114048F2C00202F5BD
:100B70003F52514001802068B0F94410B1F1FF3F6D
:100B8000ADF80A107FF74EAE02F0C4F810F4806F93
:100B90000DD02068B0F8441021F48061A0F8441012
:100BA000204600F003F92046002100F014F92068E7
:100BB00002F0B0F80146206811F4804F1EBFB0F873
:100BC000441021F48041A0F8441002F0A3F801463B
:100BD000206811F4005F1EBFB0F8441021F40051EA
:100BE000A0F8441002F096F80146206811F4805FE6
:100BF00015D0B0F8401021F00401A0F84010B0F872
:100C0000401021F00801A0F84010204600F0DBF869
:100C10002068B0F8441021F48051A0F8441002F08C
:100C200079F810F4006F1AD02068B0F8401041F045
:100C30000801A0F84010B0F8441021F40061A0F8B9
:100C40004410B0F8401041F00401A0F8401002F048
:100C500061F810F4805F02D1204600F0F3F82068BC
:100C600002F058F810F4007F09D02068B0F8441062
:100C700021F40071A0F84410204600F0A8F8206884
:100C800002F048F810F4807F08BFBDE8FE8F2068AE
:100C9000B0F8441021F48071A0F84410BDE8FE8F34
:100CA000F0B585B0044600285DD094F8290428B931
:100CB000002084F82804204600F05AF8032084F825
:100CC0002904206801F0FEFE94E82F50D4E907675C
:100CD0008DE82050CDE9036701F063FE2068002114
:100CE000002502F02BF80120002100220CE06318FF
:100CF000203183F8282083F829009A8683F82B5026
:100D0000C3E90E551D640132B1F5F07FEFD100202B
:100D1000002100220DE06318203183F8282283F897
:100D200029029A8683F82B02C3E98E00C3F8400299
:100D30000132B1F5F07FEED194E88F00D4E905657A
:100D4000D4E907CECDE9007602AE86E8205001F066
:100D5000A7FE0025012084F8245084F82904206887
:100D600001F09CFE00E00125284605B0F0BD000022
:100D700000680C49884218BF7047E0B50A48002255
:100D8000016841F4000101600521006800F40000E1
:100D9000019001981420FFF711FC1420BDE88C404D
:100DA000FFF700BC005C00401C10024010B5044678
:100DB000D0F85C04012101F0A0FAD4F85C04BDE88D
:100DC000104001F067BAD0F85C0401F082BAD0F8A4
:100DD0005C0401F084BA10B5044690F82804012898
:100DE00001D102200AE0012084F8241084F82804AC
:100DF000206801F0A5FF002084F82804C0B210BDCF
:100E0000D0F85C2400F22C41104601F089BA10B5EC
:100E1000044690F82804012801D102200FE00120A7
:100E2000012184F828042046FFF714FC206801F013
:100E300033FE206801F060FF002084F82804C0B26F
:100E400010BD000010B50446D0F85C0401F0B4FAFF
:100E5000A06920B10248016841F00601016010BD9F
:100E600010ED00E02DE9FC4104460078B64EC007C5
:100E70005BD0B06910F0805F0BD1B0694FF0010812
:100E800040F08050B061B06900F08050019001984E
:100E900001E04FF00008304F386810F4807F11D126
:100EA000386840F480703860FFF724FA05463868E7
:100EB00010F4807F06D1FFF71DFA401B6428F6D995
:100EC000032045E0F06910F4407020D0616801F41F
:100ED000407188421BD02149F06901220A6000223A
:100EE00010F0010F0A6020F44071F1610FD0FFF79C
:100EF00001FA054641F28837F06910F0020F06D179
:100F0000FFF7F8F9411B0320B942F5D920E0F06959
:100F10006168B8F1000F20F4407040EA0100F06110
:100F20001EBFB06920F08050B061206810F0020F41
:100F300005D03168A26821F4404111433160C006F8
:100F400005D53068E16820F4800008433060002057
:100F5000C0B202B0BDE8F0810070004040044242DF
:100F60002DE9F0414B4F04464FF480500D4639585F
:100F700001F00701A94209D2395821F0070129439C
:100F80003950385800F00700A84245D1206810F0C9
:100F9000020F05D07968A26821F0F0011143796051
:100FA000C00732D14FF48050395801F00701A942EF
:100FB00009D9395821F0070129433950385800F030
:100FC0000700A84228D1206810F0040F05D07968E6
:100FD000E26821F4E06111437960000706D5786882
:100FE000216920F4605040EAC100786000F090F878
:100FF0007968294A0024C1F30311515CC840424971
:1010000008600020FFF74AFA07E06068012807D16E
:10101000396811F4003F0BD10124E0B2BDE8F08142
:101020003968022802D18901F6D501E08907F3D594
:10103000796821F0030108437860FFF75BF9064601
:10104000606841F2883801280CD0022815D17868F0
:1010500000F00C000828A5D0FFF74CF9801B404594
:10106000F5D914E0786800F00C0004289AD0FFF756
:1010700041F9801B4045F5D909E0786810F00C0F64
:101080003FF490AFFFF736F9801B4045F5D90324B4
:10109000C3E700BF00100240DA3700080F220260E9
:1010A000294A136803F003034360136803F0F00355
:1010B0008360136803F4E063C3604FF4E063126875
:1010C00003EAD20202610348006800F007000860EA
:1010D000704700BF00200240F3480068704700BF1F
:1010E000F148EF49094A00680968C1F30221515CDF
:1010F000C8407047EC48EA49044A00680968C1F3EF
:10110000C221515CC840704774000020EA370008D3
:1011100010B50D4C0D48226802F00C03082B18BFC7
:1011200010BDC2F383430AA112F4803FCB5C02D10D
:101130000C48584310BD216809A25843C1F34041EF
:10114000515CB0FBF1F010BD0410024000127A00B7
:1011500002030405060708090A0B0C0D0E0F1010F8
:101160000102000000093D002DE9FE4381460078A0
:10117000CA4ECB4FC0074FD0386800F00C0004288F
:1011800019D0386800F00C00082803D1386810F432
:10119000803F10D1D9F80400A8B1B0F5803F06D047
:1011A0003168B0F5A02F23D141F480203060306841
:1011B00040F4803022E0306810F4003F2CD0D9F8A1
:1011C000040048BB1EE1306820F480303060306895
:1011D00020F480203060FFF78DF80546306810F469
:1011E000003F19D0FFF786F8401B6428F6D9F7E0D6
:1011F00021F480303060306820F480203060FFF7C8
:1012000079F80546306810F4003F05D1FFF772F811
:10121000401B6428F6D9E3E099F80000800732D536
:10122000386810F00C0F08D0386800F00C0008285F
:101230000CD1386810F4803F08D1306810F0020FEC
:1012400019D0D9F81000012815D0DBE0D9F810101A
:101250009448002900F0888001210160FFF74AF8D6
:101260000546306810F0020F05D1FFF743F8401B28
:101270000228F6D9B4E03068D9F8141020F0F8004C
:1012800040EAC100306099F80000000731D5D9F874
:10129000180080B183480121C0F88014FFF72AF8B4
:1012A0000546386A10F0020F16D1FFF723F8401BED
:1012B0000228F6D994E07B480021C0F88014FFF79B
:1012C00019F80546386A10F0020F12D0FFF712F82D
:1012D000401B0228F6D983E073484FF4FA510068A6
:1012E000B0FBF1F0029000BF0298411E002802916D
:1012F000F9D199F8000040077BD5B86910F0805FFC
:101300000BD1B8694FF0010840F08050B861B8695E
:1013100000F080500190019801E04FF00008634C0C
:10132000305910F4807F10D1305940F48070305122
:10133000FEF7E0FF0546305910F4807F05D1FEF737
:10134000D9FF401B6428F6D94AE0D9F80C00D8B17F
:10135000012805D0F96905282DD141F00400F86174
:10136000F86940F001002CE000210160FEF7C2FFA7
:101370000546306810F0020F3FF485AFFEF7BAFF64
:10138000401B0228F5D92BE0F86920F00100F86134
:10139000F86920F00400F861FEF7ACFF054641F261
:1013A0008834F86910F0020F1CD0FEF7A3FF401B31
:1013B000A042F6D914E021F00100F861F86920F0AC
:1013C0000400F861FEF796FF054641F28834F8699B
:1013D00010F0020F06D1FEF78DFF401BA042F6D998
:1013E000032056E0B8F1000F1EBFB86920F080500E
:1013F000B861D9F81C40002C4AD0386800F00C00C5
:10140000082801D1012044E02649002088460866CA
:10141000FEF770FF0546022C0BD14446306810F0F1
:10142000007F11D0FEF766FF411B03200229F5D98A
:101430002FE0306810F0007F2AD0FEF75BFF411BE1
:1014400003200329F5D324E0D9F82000B0F5803F2C
:1014500006D13968D9F8082021F4003111433960E8
:101460003968D9F82420104321F4741108433860F6
:1014700001202066FEF73EFF0446306810F0007F32
:1014800006D1FEF737FF011B03200229F5D900E042
:101490000020C0B203B0BDE8F08300BF00100240DE
:1014A0000410024000004242740000200060FEFF71
:1014B00070B50546C0B300264FF0000CAE6295F83B
:1014C000510020B9284600F033F8D5F828C0022191
:1014D00085F8511029680A6822F040020A60D5E9AF
:1014E0000123D5E903041A4310436A6920431043DA
:1014F000AA6902F400731843EB6918432B6A184376
:1015000040EA0C000860042000EA12406A6A1043B6
:101510004860E86A0861C86920F40060C861012079
:101520006E6585F8510000E00126304670BD000070
:10153000BFB5D74C006804F52051884218BFBFBD25
:101540000F486D46016841F48051016029460068EA
:1015500000F480500090009802200190A02000909C
:10156000032003902046FEF7F1FD0020402101906A
:101570000091029020462946FEF7E8FDBFBD00BF5E
:10158000181002400C4904280A6822F0040308BF1E
:1015900042F004030B607047411E0020B0EB116F56
:1015A0001CBF01207047044AF023516003490B70AF
:1015B000072190601160704710E000E023ED00E02B
:1015C0007047704710B50446A0B194F83D0028B9A3
:1015D000002084F83C00204600F00EF80220211D77
:1015E00084F83D00206800F01BFB012084F83D00DA
:1015F000002010BD012010BD70470068C16841F097
:101600000101C160016841F00101016000207047E3
:10161000704710B504460068016911F0020F19D037
:10162000C16811F0020F15D06FF0020101610121B4
:101630002177806910F0030F03D02046FFF7E8FF01
:1016400005E0204600F09FF8204600F09DF80020BD
:1016500020772068016911F0040F19D0C16811F0DA
:10166000040F15D06FF00401016102212177806918
:1016700010F4407F03D02046FFF7CAFF05E0204664
:1016800000F081F8204600F07FF8002020772068E5
:10169000016911F0080F19D0C16811F0080F15D0B9
:1016A0006FF00801016104212177C06910F0030F78
:1016B00003D02046FFF7ACFF05E0204600F063F8BA
:1016C000204600F061F8002020772068016911F0C1
:1016D000100F19D0C16811F0100F15D06FF0100164
:1016E000016108212177C06910F4407F03D02046B2
:1016F000FFF78EFF05E0204600F045F8204600F099
:1017000043F8002020772068016911F0010F0AD00A
:10171000C16811F0010F06D06FF001010161204690
:1017200000F034F82068016911F0800F0AD0C16818
:1017300011F0800F06D06FF0800101612046FFF7A5
:101740003FFF2068016911F0400F0AD0C16811F015
:10175000400F06D06FF040010161204600F020F8F4
:101760002068016911F0200F08BF10BDC16811F099
:10177000200F00D110BD6FF0200101612046BDE8AF
:101780001040FFF71EBF7047704700000068034914
:10179000884208BFFEF768BE704700BF00080040DF
:1017A000704710B5044640B394F8390028B90020BA
:1017B00084F83800204600F023F8242084F839000B
:1017C0002068C16821F40051C160204600F056FA3B
:1017D0002068016921F490410161416921F02A01E9
:1017E0004161C16841F40051C16000202021E063E3
:1017F00084F8391084F83A1010BD012010BD0000A3
:10180000BFB500689A4988421CD08A49884218BFEF
:10181000BFBD1E481E4C6D46016841F40031016099
:101820002946006800F400300090009802200190E2
:1018300004200090032003902046FEF787FC002040
:1018400008211BE011486D46016841F480210160C8
:101850002946006800F48020009000980220019042
:101860004FF48060009003200390094800F58064E5
:101870002046FEF76BFC00204FF4006101900091C0
:10188000029020462946FEF761FCBFBD1C100240B5
:1018900000080140FEE7000080B50348002101F088
:1018A00094FA0249086080BDF4370008F003002074
:1018B0002DE9FF412348244C002241F2040800276F
:1018C000016841F010010160016801F01001009110
:1018D0000099016841F020010160016801F02001D8
:1018E00000910099016841F004010160016801F074
:1018F000040100910099016841F00801016041F282
:101900000401006800F00800009000982046FEF7EF
:10191000EBFC0E486D460126294601904FF46040CD
:10192000009004F580600296FEF710FC0220CDE9DD
:1019300000860297294603902046FEF707FCBDE883
:10194000FF8100BF18100240000C01400000111080
:1019500080B50C480C490D4A00234FF4804C0362BB
:10196000C0E90021C0E90233C0E904C3C0E906337D
:10197000FEF7C4FC28B106A04C21BDE8804001F070
:10198000F8B980BD18060020A08601000054004070
:101990002E2E2F5372632F6932632E6300000000D6
:1019A00080B51048104A4FF4827100234FF4007C38
:1019B0004FF0080EC0E900210A21C0E90233C0E956
:1019C0000433C0E906CEC0E90833C0E90A31FFF7A5
:1019D0006FFD28B105A04F21BDE8804001F0C9B9D5
:1019E00080BD00BFCC0A0020003001402E2E2F53B6
:1019F00072632F7370692E630000000080B50C487D
:101A00000C4A4FF4E13100234FF00C0CC0E90021E7
:101A1000C0E90233C0E9043CC0E90633FFF7C1FE68
:101A200028B114484D21BDE8804001F0A2B980BD25
:101A3000640B00200044004080B50C480C4A4FF471
:101A4000E13100234FF00C0CC0E90021C0E9023362
:101A5000C0E9043CC0E90633FFF7A3FE28B10548FE
:101A60006021BDE8804001F084B980BDA40B002056
:101A7000004800401438000810B5074C0749002200
:101A8000204600F0D7FA0649204600F0BCFC20466C
:101A9000BDE8104000F0CBBCF40300200C00002097
:101AA0008C000020FEE7704710B5064A064C00F097
:101AB0000F03002802444FEA0110B8BF1A19107032
:101AC00010BD00BF00E400E014ED00E000000000E5
:101AD000EFF30980BFF36F8F0D4B1A6820E9F00F09
:101AE00010602DE908404FF0500080F3118801F09C
:101AF0002DFC4FF0000080F31188BDE80840196804
:101B00000868B0E8F00F80F30988BFF36F8F704763
:101B1000E40B0020000000000000000000000000B6
:101B2000074B19680868B0E8F00F80F30988BFF325
:101B30006F8F4FF0000080F311884EF00D0E70474C
:101B4000E40B002080B5FFF797FF012001F026F994
:101B5000FBE701F030B9B0B594B04FF4803001210B
:101B6000002402250B900A910C940E91CDE911509E
:101B70004FF4E01013900AA8FFF7F6FA0F200221A5
:101B8000CDE905054FF480600794CDE9080405A868
:101B9000FFF7E6F91020019001A80494FFF762F91D
:101BA000FFF79AFA4FF47A71B0FBF1F0FFF7F4FC0B
:101BB0000420FFF7E7FC4FF0FF300F210022FEF773
:101BC000FDFC14B0B0BD00000E480F4A016841F0A2
:101BD00001010160416811400C4A416001681140F7
:101BE0000160016821F480210160416821F4FE0157
:101BF00041604FF41F01816005484FF000610160B2
:101C0000704700BF001002400000FFF8FFFFF6FE23
:101C100008ED00E00148FFF7FCBC00BF240B0020EA
:101C2000B0B50368124DB0F1804F07D0114CA042FF
:101C300004D0A84202D0104CA04207D14C6823F433
:101C40005C73CA6824F44074234313434A6923F045
:101C50008003A84242EA030202608A68C2620A68FC
:101C6000826204BF0969296301214161B0BD00BFDF
:101C7000002C014000040040000800402DE9F0471E
:101C80000446006841F20C660169E26821F44051A3
:101C900011430161A168D4E90423C7681143B74324
:101CA00019433943C1604169A26921F4407111436C
:101CB00041612849884214BFDFF89CA0DFF89CA04E
:101CC000D047D4F804908046D04767680646D0478E
:101CD00061681925BF00684306FB05F38900B3FB63
:101CE000F7F3B0FBF1F06421B0FBF1F202FB11025B
:101CF000181A4FEA89031044322202EB001008FB45
:101D000005F2B0FBF1F0B2FBF3F200F0F000B2FB31
:101D1000F1F100EB0116D047616868438900B0FB20
:101D2000F1F7D0476168684364228900B0FBF1F0A5
:101D3000B0FBF2F3391A03FB12000844322101EB25
:101D400000102168B0FBF2F000F00F003043886013
:101D5000BDE8F08700380140E1100008F5100008E8
:101D600080B5D0F8142252689047002080BD80B51D
:101D700013460A46002100F07DFA002080BD80B5A0
:101D800013460A46002100F021FB002080BD10B55B
:101D90008021044600F0F0FA20460021BDE8104002
:101DA00000F0EABA80B5052100220023C0F8F41142
:101DB000002100F05FFA002080BD80B513460A467E
:101DC0000221C0F8F4110021C0E9063300F0FEFA48
:101DD000002080BD80B5042100220023C0F8F4114A
:101DE000002100F0F3FA002080BD000010B5344C53
:101DF0000A4603A0214600F065F8204610BD00BF4A
:101E000048494420436F6E666967000012200880CD
:101E1000004870477800002010B5294C0A4603A0FE
:101E2000214600F04FF8204610BD00BF484944202D
:101E3000496E746572666163650000000420088065
:101E4000004870470001002010B51D4C0A4603A051
:101E5000214600F037F8204610BD00BF53544D69AD
:101E600063726F656C656374726F6E696373000093
:101E700010B5134C0A4603A0214600F023F8204673
:101E800010BD00BF53544D33322048756D616E2034
:101E9000696E7465726661636500000010B5084C78
:101EA0000A4603A0214600F00DF8204610BD00BFF1
:101EB00030303030303030303030314100000000D0
:101EC000DC01002080B550B34FF0000C864603E0E3
:101ED0000EF1010E0CF1010C9EF80030002BF7D131
:101EE0005FFA8CFC4FF0020E0EEB4C0CA2F800C017
:101EF00081F800C04FF0030C01220BE05FFA8EF373
:101F000001304FF0000CCA544EF001020EF10203F2
:101F1000D2B29E4601F802C00278002AEED180BDFE
:101F2000D0F81802002101730020704710B58121FC
:101F3000044600F0A7F8D4F8180220B100F01CFC09
:101F40000020C4F81802002010BD000022210180EA
:101F500000487047C40000200A21018000487047F3
:101F6000F400002010B5812103220423044600F070
:101F70006FF9102000F002FC01460028C4F8180296
:101F80000EBF01200020087310BD000080B50B7843
:101F9000D0F818C213F060030FD0202B2DD14B784E
:101FA000023B092B2CD8DFE803F005242B2B2B2B2D
:101FB0002B2B2F330CF104011CE04B780B2B11D091
:101FC0000A2B13D0062B18D14A882123B3EB122FEA
:101FD00022D0120A222A25D1CA8815494A2A28BFA6
:101FE0004A2208E08878CCF8080006E00CF10801E5
:101FF00000E061460122FFF7E0FE0020C0B280BD94
:10200000FFF7C5FE0220F9E7C878CCF80400F4E732
:102010008878CCF80000F0E7CA880449092A28BF6C
:102020000922E8E700220021E5E700BFE8000020E0
:102030002800002098B1D0F8143213B10023C0F862
:10204000143209B1C0F8101280B50121027080F875
:10205000FC1100F0ABF80020BDE8804000E0022059
:10206000C0B2704780B5D0F82002FEF726FB0328E7
:102070008FBF0220C000DD4921FA00F098BFC0B236
:1020800080BD00BF80B5D0F82002FEF7F3FA032828
:102090008FBF0220C000D54921FA00F098BFC0B21E
:1020A00080BD00BFB0B5044659B1D4F814024269EE
:1020B000002A46D094F8FC01032842D120469047DC
:1020C0003FE0D4F8F401022834D1D4E9071081426A
:1020D00008D9081A114683B2E06120461A46FFF774
:1020E0004EFE13E0A169814217D3B1FBF0F202FB6F
:1020F000101090B9D4F8F80181420ED22046002188
:1021000000220025FFF73BFEC4F8F85120460021CD
:102110000022002300F0AEF80CE0D4F81402C168ED
:1021200029B194F8FC01032801D1204688472046B4
:10213000FFF738FE94F80002012804BF002084F85D
:1021400000020020B0BD10B5044651B1D4F814020D
:10215000826942B394F8FC01032824D120469047B9
:1021600021E0D4F8F40103281DD1D4E943108142C1
:102170000CD9091A8142C4F80C1138BF084611461F
:1021800083B220461A46FFF7F2FD0CE0D4F81402A1
:10219000016929B194F8FC01032801D12046884740
:1021A0002046FFF717FE002010BD0000B0B5044622
:1021B0001748184A4FF0080C02230321C0F85C446A
:1021C000C4F82002C0E9002CC0E902310021C0E9B6
:1021D00006110162FEF764FD20B10FA04FF4977164
:1021E00000F0C7FDD4F82002104D00210022182372
:1021F000A847D4F82002802100225823A847D4F809
:102200002002812100224FF48073A8470020B0BD36
:102210006C060020005C00402E2E2F5372632F7539
:102220007362645F636F6E662E63000021060008B0
:10223000D0F8200201F07F0211F0800F00EB421075
:1022400000F12A0208BF00F22A221078704700002D
:1022500080B59446D0F820021A466346FEF752FA3B
:1022600003288FBF0220C000604921FA00F098BF08
:10227000C0B280BD80B5D0F82002FEF767FA03280F
:102280008FBF0220C000594921FA00F098BFC0B2A8
:1022900080BD00BFB0B50021002240230446402588
:1022A000FFF7D6FF2046802100224023C4F81051BA
:1022B000FFF7CEFF0120256284F8FC01D4F8180254
:1022C00028B1D4F8140221794268204690470020B2
:1022D000B0BD90F8FD1180F8FC110020704790F817
:1022E000FC11032907D1D0F81412C96919B180B5BE
:1022F0008847BDE880400020704701740020704787
:1023000080B5D0F82002FEF766FD03288FBF0220BB
:10231000C000364921FA00F098BFC0B280BD00BFAE
:10232000B0B500F502750446284600F061F8B4F82F
:102330000E120120C4E97D0194F8080200F01F018B
:10234000022907D001290AD071B92046294600F098
:1023500073F80EE02046294600F086F909E0204691
:10236000294600F0ECF904E000F08001204600F07E
:1023700003F80020B0BD000080B5D0F82002FEF7C1
:10238000FBF903288FBF0220C000184921FA00F092
:1023900098BFC0B280BD00BF80B5D0F82002FEF764
:1023A00036FD03288FBF0220C000104921FA00F03B
:1023B00098BFC0B280BD00BF90F8FC1180F8FD113D
:1023C000042180F8FC1100207047000080B5D0F88F
:1023D0002002FEF7FDF903288FBF0220C000034949
:1023E00021FA00F098BFC0B280BD00BF0002010218
:1023F0000A7802704A7842704A8842808A888280CD
:10240000C988C180704700291ABFC0F81412002083
:102410000220C0B27047D0F8142232B180B51268E1
:102420009047002818BF022080BD0220704780B569
:10243000FFF7B2FF002080BDBCB5044648780D46CA
:10244000092800F2CE80DFE800F00518CC25CC5A30
:102450007ACC364694F8FC0100F0FE00022840F0E9
:10246000C080D4F80402032102220028204608BFBD
:102470000121E16004F10C01D8E094F8FC0100F0C6
:10248000FE00022840F0AD806888012840F0AC8052
:10249000002004E06888012840F0A6800120C4F8EC
:1024A00004022946D4F81402826820469047204648
:1024B000FFF790FC98E0E888012840F0928094F8BB
:1024C000FC01032851D0022840F08B8000202146D7
:1024D00041F8080F4AE06888624DC1B228700229AD
:1024E00080F07F8094F8FC01032842D0022840F05D
:1024F00078800029DBD0032084F8FC0144E0A88820
:10250000002840F06E80E888002840F06A8094F847
:10251000FC01032800F06580688800F07F052046F4
:10252000E9B284F8FE51FFF7EBFE2046FFF752FCBC
:10253000002D0CBF0120022084F8FC0154E06888C3
:102540004FF0FF3101EB102106294AD8DFE801F0F6
:1025500004312449493E4700D4F81012207C0A680F
:102560000DF106019047014653E0211D204601224E
:102570005CE000293BD0606888423FF498AFC1B26C
:102580002046FFF7EDFB297820466160FFF743FF07
:1025900002287FF48CAF24E0C0B2052821D8DFE800
:1025A00000F003484D52575CD4F81012207C4A6862
:1025B000D6E7217CD4F8140200290CBF816AC16AD5
:1025C0000DF1060088470146022021E0207C40B939
:1025D000D4F81402416B0DF106008847C3E7207C54
:1025E00070B12046FFF7D3FB002002B0B0BD002041
:1025F0006060022084F8FC012046FFF7B1FB56E73B
:10260000D4F81402016B0DF106008847014607203B
:102610004870BDF806000028E6D0EA88002AE3D01A
:10262000904238BF02462046ADF80620FFF7C5FBB2
:10263000DAE7D4F81012207C8A6891E7D4F81012F7
:10264000207CCA688CE7D4F81012207C0A6987E7DE
:10265000D4F81012207C4A6982E7D4F81012207C4A
:102660008A697DE7D8010020B0B5044608780D4698
:1026700000F06000202807D1D4F8140229468268AF
:10268000204690470020B0BD6878297988B101289C
:1026900018D00328F6D194F8FC01032816D16888D5
:1026A00050BB41F08000802826D02046FFF764FE12
:1026B00022E094F8FC01032828D0022810D1480613
:1026C0000AD1DFE794F8FC0103280DD0022807D1D6
:1026D00041F080008028D5D02046FFF74DFED1E79D
:1026E0002046FFF754FBCDE768880028CAD148068A
:1026F00008D02046FFF7B6FCD4F8140229468268B9
:10270000204690472046FFF765FBBBE701F07F00BE
:1027100011F0800F04EB001000F1140508BF00F564
:1027200082752046FFF784FD002829464FF00202FB
:1027300018BF012028602046FFF73FFBA2E7B0B595
:10274000044690F8FC010D46032803D1287910F0C7
:10275000FE0F04D02046FFF71AFB0020B0BDD4F8CE
:1027600014022946826820469047E8880028F4D160
:102770002046FFF72FFBF0E7704700000048704746
:10278000DC03002070B5CA78032A0CD8DFE802F019
:10279000020D161D0B7848F68F1430F823202240C6
:1027A00042F4007219E00B7819E00B7848F68F14A8
:1027B00030F82320224042F480620EE00B7848F685
:1027C0008F1430F82320224007E00B7848F68F144E
:1027D00030F82320224042F4C06220F8232030F851
:1027E000232040F60F7448F2800C22401A4342EA3C
:1027F0000C0220F8232000EB83028C7A002C49D0B5
:10280000168840F60F652E400CF580752E43168015
:10281000CE88B0F8505005EBC30526F0010600EB5A
:102820004505C5F800640E89B0F8505005EBC303A8
:1028300000EB430026F00103C0F808344978108803
:1028400000F48040002946D038B1108840F60F715E
:1028500008400CF5804108431080108810F0400FAC
:1028600007D0108840F60F7108400CF14001084372
:102870001080108840F60F7108400CF58041084325
:1028800040F63F7110801088084043F60F7140EA0F
:102890000C0046E04D788C88B0F8506006EBC3061B
:1028A00024F0010E002D42D000EB4600C0F800E4F9
:1028B000108810F0400F07D0108840F60F710840C4
:1028C0000CF1400108431080108840F63F71084029
:1028D0000CF1200161E038B1108840F60F7108401A
:1028E0000CF5804108431080108810F0400F07D08D
:1028F000108840F60F7108400CF140010843108029
:10290000108840F60F7108400CF14001084343F66F
:102910000F711080108808400CF54051484040F677
:102920003F7110801088084040EA0C0036E000EB50
:102930004604DB00C4F808E4B0F85060096900F20E
:102940000C4033443F290ED34E0140F2FF3511F0C5
:102950001F0F26EA050608BF06F5F84606F4F841FB
:1029600041F4004105E001F0010606EB5101890246
:1029700089B240F81310108810F4804F07D01088E7
:1029800040F60F7108400CF5804108431080108814
:1029900043F60F7108400CF540514840108000206C
:1029A00070BD0020704780B50A784B78897A48F26C
:1029B000800C30F822E000EB820049B30EF4804234
:1029C00093B33AB1018840F60F7211400CF5804282
:1029D00011430180018811F0400F07D0018840F6B3
:1029E0000F7211400CF1400211430180018840F642
:1029F0000F7211400CF58042114340F63F72018086
:102A00000188114041EA0C01018043F60F7231E068
:102A1000BBB35FEA4E612BD5018840F60F721140BF
:102A20000CF14002114322E03AB1018840F60F72E6
:102A300011400CF5804211430180018811F0400FD4
:102A400007D0018840F60F7211400CF1400211438B
:102A50000180018840F60F7211400CF140021143D1
:102A600043F60F7201800188114041EA0C01018098
:102A700040F63F720188114041EA0C0101800020BC
:102A800080BD5FEA4E41C0D5018840F60F7211400B
:102A90000CF580421143B7E70020704700207047D3
:102AA0000121A0F840100021A0F84010A0F8441027
:102AB000A0F85010B0F8401041F43F41A0F8401089
:102AC00000207047B0F8401044F2FF221140A0F8F7
:102AD0004010002070470020704780B50B7849787F
:102AE00030F823205B0091B1510648F2B00E0BD5AF
:102AF00030F813C040F60F710CEA010C0EF1100112
:102B000041EA0C0120F8131040F63F7111E0510426
:102B10004BF2800E0BD530F813C040F60F710CEA63
:102B2000010C0EF5805141EA0C0120F8131043F618
:102B30000F7130F81320114081EA0E0120F81310B4
:102B4000002080BD0B7800EB830C53B14A7830F83D
:102B5000231049F2800062B140F63F72A0F57F6019
:102B600009E030F8230043F63F710140054810307A
:102B700002E043F60F7211404840ACF8000000201C
:102B8000704700BF8090FFFF70B504468E690869EA
:102B90000D468642014688BF3146A1EB0001A9617E
:102BA00088BF06466878A97A012828D159B32878C1
:102BB000B3B234F82010B4F8502002EBC00011F08A
:102BC000400F04EB4000C0F804644FF0080008BF59
:102BD000062069692A5A204600F0B8F8687848F259
:102BE000B001002844D001284ED1287840F60F7358
:102BF00034F820201A403F4B03F5805340E0B1B138
:102C0000D8B128786AE0AA886969B3B2204600F092
:102C10009DF8B4F85010287840F63F7201EBC001DF
:102C200004EB4101C1F8046448F2B0015AE0B4F881
:102C30005010287801EBC00135E0B4F85010287826
:102C400004F204433F2E01EBC0014FEAC0021FD340
:102C50004FEA461C40F2FF3516F01F0F2CEA05051F
:102C600008BF05F5F84505F4F84545F4004515E0BD
:102C7000287840F60F7334F820201A4001F1100331
:102C80001A4324F8202000E0287840F63F7229E01B
:102C900006F0010505EB5605AD02ADB243F8115043
:102CA000B4F85010114404F20C423F2E0ED37301BD
:102CB00040F2FF3516F01F0F23EA050308BF03F5A6
:102CC000F84303F4F84343F4004305E006F001033E
:102CD00003EB56039B029BB242F8113043F60F728E
:102CE0004BF2800134F820301A40514024F8201073
:102CF000002070BD80B0FFFFB0F8401041F43F41AC
:102D0000A0F84010002070470148FDF775BD00BFD6
:102D10006C060020B0F84400704700EB420003F15D
:102D2000010C0023A3EB5C0300F5806003E004C802
:102D3000013321F8022B002BF9D170470020704796
:102D400011B98021A0F84C100020704700EB420020
:102D500003F1010C0023A3EB5C0300F5806004E0A9
:102D600031F8022B013320F8042B002BF8D17047E7
:102D7000FEE7FEE780B5FDF77FFBFEF7ECFEFEF712
:102D800097FDFEF70DFEFEF757FEFEF737FEFEF746
:102D9000DFFDFEF781FD00F009F8FEE780B50028B1
:102DA00008BF012000F070FA002080BD80B500F05F
:102DB0008FFA002080BD80B500F012FC012814BFFE
:102DC000BDE8804080BD00F03BBB1FB58C46028A49
:102DD000D0E9001300890DF10C0E04B284281846C6
:102DE000634604F1030408BF0024CDE9004E00F05F
:102DF0003DFB0399012818BF0021084604B010BD0F
:102E00002DE9F041DFF8A4891C4F04460D46D8F89F
:102E100020603868043000F06FF950B9386801213B
:102E2000C06A01FA00F0D8F8001021EA0000C8F8E2
:102E30000000601C08D13DB1396808F14C00043134
:102E4000BDE8F04100F093B93868A419446007D395
:102E5000D8F8300039680431BDE8F04100F06AB9B3
:102E6000D8F82C003968043100F064F9D8F81C0057
:102E7000844238BFC8F81C40BDE8F081E40B002054
:102E800010B50446006B00F0B5F92046BDE81040CF
:102E900000F0B0B92DE9F0413A4D164EC94F4FF050
:102EA0008058A868D0B16869AC6B0130686100F0E7
:102EB0001BFC002CF5D000F067F9686CC468201D7D
:102EC00000F01AF9E8680138E860A8680138A860DD
:102ED00000F07AF92046FFF7D3FFE2E730680228D6
:102EE000DFD3C7F80080BFF34F8F3846BFF36F8F33
:102EF000D7E700BFE80B0020DFF868C30CF10C0235
:102F0000114612688242FBD380B5D1F804E001EB90
:102F10000E03834203D14068704448600846D0F8ED
:102F200004E000EB0E03934207D1DCF800309A4234
:102F300003D0536873444360126802608142BDE865
:102F4000804018BF0860704706480068006880F33A
:102F5000088862B661B6BFF34F8FBFF36F8F00DF93
:102F600000BF00BF08ED00E0F748C16A096821B161
:102F7000C16AC968C968496801E04FF0FF31C161A1
:102F8000704700BF30010020994800684FF05001A1
:102F900081F31188BFF36F8FBFF34F8F013000D0E3
:102FA000FEE7FEE72DE9F041044600F0C7F9AD4E1B
:102FB000306830B1AA480778002F18BF4FF000479B
:102FC00024E0444F00203061FB1D17F00702394612
:102FD00023F0070318BF1946DB1B4FF44067002A94
:102FE000F16018BFC3F54067CA194FF00047083AAF
:102FF00022F007023260C2E90000501A48603268CD
:103000000A60C6E901009648012101700025002CE4
:103010004FD017EA04004CD104F1080111F0070069
:103020000ED0C0F10800014411F0070F08D04FF096
:10303000500080F31188BFF36F8FBFF34F8FFEE70F
:10304000D6F80480481E404520D2344654F80C3F40
:10305000586822461C46884202D22368002BF7D1CA
:1030600033689C4212D0236815681360421A112AF3
:1030700013D3601810F0070F0AD04FF0500080F300
:103080001188BFF36F8FBFF34F8FFEE7002510E06D
:1030900042606160FFF730FF6068A8EB000108350F
:1030A00038437160B268914238BFB1600021C4E911
:1030B000001000F019FB680704BF2846BDE8F08146
:1030C0004FF0500080F31188BFF36F8FBFF34F8F25
:1030D000FEE700BF740C0020064B4FF0807C21F00F
:1030E000010140F8202C40E9033140F804CC40387D
:1030F000704700BF892F0008D0E9013201699A604A
:10310000826853604B68834208BF4A6000220261B4
:1031100008680138086070474FF0FF32034600210D
:1031200043F8082FC0E90013C0E9033370470021BA
:103130000161704780B5D1F800C01CF1010207D0D1
:1031400000F108029646526813686345FAD903E015
:10315000D0F810E0DEF804204A609160C1F808E081
:10316000CEF80410086101680131016080BD426839
:103170004A6093688B609368596091600861016848
:1031800001310160704700004FF0500080F311885A
:10319000BFF36F8FBFF34F8FA84801684A1C002907
:1031A000026000D07047B048006810F0FF0FF9D0FF
:1031B0004FF0500080F31188BFF36F8FBFF34F8F34
:1031C000FEE700BF04ED00E09C48016839B1013919
:1031D000016018BF7047002080F3118870474FF0DE
:1031E000500080F31188BFF36F8FBFF34F8FFEE75E
:1031F00004010020B0B50446B0B1194954F8040CDC
:103200000978002918BF4FF0004101420DD0A4F108
:1032100008052A6892B14FF0500080F31188BFF37F
:103220006F8FBFF34F8FFEE7B0BD4FF0500080F3BC
:103230001188BFF36F8FBFF34F8FFEE7884344F8C9
:10324000040C00F07BF8074954F8040C4A68104459
:1032500048602846FFF750FEBDE8B04000F044BA91
:10326000741800201001002005484FF47A7100689E
:10327000B0FBF1F00349013848600720086070474F
:103280007400002010E000E0C8B1DB494A6942B197
:103290004FF0500080F31188BFF36F8FBFF34F8F53
:1032A000FEE780B54A6901324A610021FFF7A8FDB7
:1032B00000F01AFA0028BDE8804018BF7047C748E0
:1032C0004FF080510160BFF34F8FBFF36F8F704796
:1032D0001CB5164C00218022002304F11800CDE912
:1032E0000010134813A100F0C1F8411C15D00128AB
:1032F00018BF1CBD4FF0500080F31188BFF36F8FD3
:10330000BFF34F8F4FF0FF30E061012020610020BC
:103310002062BDE81C4000F045B84FF0500080F33B
:103320001188BFF36F8FBFF34F8FFEE7300100208E
:10333000952E000849444C4500000000E7484169CB
:1033400001314161704700BF30010020E34841690D
:1033500011B101214162704700214162E0490068DA
:10336000B0FA80F0C0B2C0F11F0000EB800051F84D
:10337000202072B101EB800151F8040F40680A1D52
:103380000860904204BF40680860D649C068086081
:1033900070474FF0500080F31188BFF36F8FBFF379
:1033A0004F8FFEE71CB5234C072321780191FF21A5
:1033B0002170214922784B6006238DF803209DF867
:1033C000032002F050020A704FF4E06208E04B6004
:1033D000013BA2F580729DF8030040008DF80300C8
:1033E0009DF90300B0F1FF3FF1DD02F4E0604860B9
:1033F00001982070D4F8200940F47000C4F8200926
:10340000D4F8200940F07040C4F82009FFF72CFFE1
:103410000A4C00202060FFF797FD20684FF0500114
:1034200081F31188BFF36F8FBFF34F8F013000D04E
:10343000FEE7FEE700E400E0240100200401002094
:1034400080B54FF0500080F31188BFF36F8FBFF34A
:103450004F8F00F0D3F818B1D7484FF0805101607A
:10346000002080F3118880BD04ED00E02DE9F84FC5
:1034700082469000994616460D46FFF793FD074693
:10348000002857D05420FFF78DFD044600284ED069
:1034900007EB8600DDF828B02763043820F0070822
:1034A00000200F2807D8295C221882F83410295CE4
:1034B00001300029F5D10025261DBBF1060F84F847
:1034C000435028BF4FF0060B3046C4F82CB0C4E977
:1034D00011B5FFF72CFE04F11800FFF728FE8BF062
:1034E0000700E56451464A46A061404684F85050C2
:1034F00024616462FFF7F0FD20600B9800B1046066
:10350000FFF742FEA94FDFF8AC92B246F8680130EF
:10351000F860D9F8000080B1386988BBD9F800009C
:10352000E16AC06A884298BFC9F8004028E038467E
:10353000FFF760FE4FF0FF3647E0C9F80040F8683B
:1035400001281DD19A4D002603E0A819FFF7E4FDDC
:1035500014368C2EF9D1DFF87C801F4D4046A847E9
:1035600008F114063046A84707F16000A84707F1A4
:103570003800A84707F14C00A847C7F82C803E63E5
:103580007868012601307860E06A3A6806FA00F14E
:1035900000EB800011433960854901EB8000514602
:1035A000FFF7E5FDFFF710FE386970B1D9F80000AC
:1035B000E16AC06A884207D27F484FF080510160BB
:1035C000BFF34F8FBFF36F8F0126304601B0BDE8C8
:1035D000F08F00BFB00100201931000804ED00E0B9
:1035E0007248016900290FBF01204069B0FA80F0DC
:1035F000400918BF40007047300100202DE9F84F06
:103600006A4E706920B1B06A00240130B06247E0B0
:10361000306A10F1010BC6F820B049D0F0690024DF
:10362000834532D3DFF88891DFF888A14FF0010895
:1036300024E0F06AC068C7683D4655F8040F83452A
:1036400022D32846FFF758FDB86A18B107F11800D1
:10365000FFF752FDF86A326808FA00F100EB8000CB
:10366000114309EB800031602946FFF780FDF86ABD
:10367000DAF80010C96A884228BF4446F06A006838
:103680000028D6D14FF0FF30F0614A484849006821
:10369000C06A00EB800051F82000012888BF012497
:1036A000706A002818BF0124204601B0BDE8F08FE1
:1036B000F06A006840B14FF0500080F31188BFF30A
:1036C0006F8FBFF34F8FFEE7F06A316BF1623063AB
:1036D000706B01307063FFF747FC9FE730010020FB
:1036E000E80B0020E40B00202DE9F8432F4D68691A
:1036F00068B1FFF749FD686901386861686978B1A8
:103700000024FFF761FD204601B0BDE8F0834FF0D3
:10371000500080F31188BFF36F8FBFF34F8FFEE728
:10372000E8680028ECD0DFF88880DFF88890002671
:1037300001271DE0E86EC66806F11800FFF7DCFC03
:10374000341D2046FFF7D8FCF06A2A6807FA00F11A
:1037500000EB8000114308EB800029602146FFF751
:1037600006FDF06AD9F80010C96A884228BF6F6266
:10377000286E0028DED10EB1FFF7F6FBAC6A44B12B
:103780000126FFF73BFF00B16E62013CF9D100203A
:10379000A862686A0028B3D007484FF0805101241E
:1037A0000160BFF34F8FBFF36F8FAAE73001002096
:1037B000E80B0020E40B002004ED00E002E008C864
:1037C000121F08C1002AFAD170477047002001E09B
:1037D00001C1121F002AFBD1704700000000000049
:1037E00000000102030406070809000000000102AE
:1037F0000304000008380008451B00080000000012
:10380000000000008000000064656661756C7454FF
:1038100061736B002E2E2F5372632F757361727458
:103820002E63000050380008000000201001000046
:10383000BC3700086039000810010020681B000038
:10384000CC3700080000000000000000000000006D
:103850000100000010000000000000000D1E000824
:103860003D1E0008491E0008711E00089D1E00082C
:10387000ED1D0008191E000805010902A10109013A
:10388000A1000509190129031500250195037501FA
:103890008102950175058101050109300931093859
:1038A0001581257F750895038106C0093C05FF0930
:1038B000011500250175019502B12275069501B12A
:1038C00001C0000000A24A041201000200000040F2
:1038D00083042B570002010203010000651F00084A
:1038E0002D1F00088D1F00080000000000000000D0
:1038F000211F000800000000000000000000000080
:10390000000000004D1F00084D1F00084D1F00085B
:10391000591F000809022200010100E032090400D9
:10392000000103010200092111010001224A0007E0
:1039300005810304000A0000092111010001224A47
:10394000000000000A060002000000400100000024
:1039500004030904AAAAAAAA0000000000000000AB
:04000005080000ED02
:00000001FF
